:020000041003E7
:20000000FFFFFFFFFFFFFFFFFFFFFFFFFFFFFFFF8AA29FB8EA7BC50020001E0000040310EE
:20002000FFFFFFFFFFFFFFFFFFFFFFFFFFFFFFFFFFFFFFFFFFFFFFFFFFFFFFFFFFFFFFFFE0
:20004000FFFFFFFFFFFFFFFFFFFFFFFFFFFFFFFFFFFFFFFFFFFFFFFFFFFFFFFFFFFFFFFFC0
:20006000FFFFFFFFFFFFFFFFFFFFFFFFFFFFFFFFFFFFFFFFFFFFFFFFFFFFFFFFFFFFFFFFA0
:20008000FFFFFFFFFFFFFFFFFFFFFFFFFFFFFFFFFFFFFFFFFFFFFFFFFFFFFFFFFFFFFFFF80
:2000A000FFFFFFFFFFFFFFFFFFFFFFFFFFFFFFFFFFFFFFFFFFFFFFFFFFFFFFFFFFFFFFFF60
:2000C000FFFFFFFFFFFFFFFFFFFFFFFFFFFFFFFFFFFFFFFFFFFFFFFFFFFFFFFFFFFFFFFF40
:2000E000FFFFFFFFFFFFFFFFFFFFFFFFFFFFFFFFFFFFFFFFFFFFFFFFFFFFFFFFFFFFFFFF20
:20010000FFFFFFFFFFFFFFFFFFFFFFFFFFFFFFFFFFFFFFFFFFFFFFFFFFFFFFFFFFFFFFFFFF
:20012000FFFFFFFFFFFFFFFFFFFFFFFFFFFFFFFFFFFFFFFFFFFFFFFFFFFFFFFFFFFFFFFFDF
:20014000FFFFFFFFFFFFFFFFFFFFFFFFFFFFFFFFFFFFFFFFFFFFFFFFFFFFFFFFFFFFFFFFBF
:20016000FFFFFFFFFFFFFFFFFFFFFFFFFFFFFFFFFFFFFFFFFFFFFFFFFFFFFFFFFFFFFFFF9F
:20018000FFFFFFFFFFFFFFFFFFFFFFFFFFFFFFFFFFFFFFFFFFFFFFFFFFFFFFFFFFFFFFFF7F
:2001A000FFFFFFFFFFFFFFFFFFFFFFFFFFFFFFFFFFFFFFFFFFFFFFFFFFFFFFFFFFFFFFFF5F
:2001C000FFFFFFFFFFFFFFFFFFFFFFFFFFFFFFFFFFFFFFFFFFFFFFFFFFFFFFFFFFFFFFFF3F
:2001E000FFFFFFFFFFFFFFFFFFFFFFFFFFFFFFFFFFFFFFFFFFFFFFFFFFFFFFFFFFFFFFFF1F
:20020000FFFFFFFFFFFFFFFFFFFFFFFFFFFFFFFFFFFFFFFFFFFFFFFFFFFFFFFFFFFFFFFFFE
:20022000FFFFFFFFFFFFFFFFFFFFFFFFFFFFFFFFFFFFFFFFFFFFFFFFFFFFFFFFFFFFFFFFDE
:20024000FFFFFFFFFFFFFFFFFFFFFFFFFFFFFFFFFFFFFFFFFFFFFFFFFFFFFFFFFFFFFFFFBE
:20026000FFFFFFFFFFFFFFFFFFFFFFFFFFFFFFFFFFFFFFFFFFFFFFFFFFFFFFFFFFFFFFFF9E
:20028000FFFFFFFFFFFFFFFFFFFFFFFFFFFFFFFFFFFFFFFFFFFFFFFFFFFFFFFFFFFFFFFF7E
:2002A000FFFFFFFFFFFFFFFFFFFFFFFFFFFFFFFFFFFFFFFFFFFFFFFFFFFFFFFFFFFFFFFF5E
:2002C000FFFFFFFFFFFFFFFFFFFFFFFFFFFFFFFFFFFFFFFFFFFFFFFFFFFFFFFFFFFFFFFF3E
:2002E000FFFFFFFFFFFFFFFFFFFFFFFFFFFFFFFFFFFFFFFFFFFFFFFFFFFFFFFFFFFFFFFF1E
:20030000FFFFFFFFFFFFFFFFFFFFFFFFFFFFFFFFFFFFFFFFFFFFFFFFFFFFFFFFFFFFFFFFFD
:20032000FFFFFFFFFFFFFFFFFFFFFFFFFFFFFFFFFFFFFFFFFFFFFFFFFFFFFFFFFFFFFFFFDD
:20034000FFFFFFFFFFFFFFFFFFFFFFFFFFFFFFFFFFFFFFFFFFFFFFFFFFFFFFFFFFFFFFFFBD
:20036000FFFFFFFFFFFFFFFFFFFFFFFFFFFFFFFFFFFFFFFFFFFFFFFFFFFFFFFFFFFFFFFF9D
:20038000FFFFFFFFFFFFFFFFFFFFFFFFFFFFFFFFFFFFFFFFFFFFFFFFFFFFFFFFFFFFFFFF7D
:2003A000FFFFFFFFFFFFFFFFFFFFFFFFFFFFFFFFFFFFFFFFFFFFFFFFFFFFFFFFFFFFFFFF5D
:2003C000FFFFFFFFFFFFFFFFFFFFFFFFFFFFFFFFFFFFFFFFFFFFFFFFFFFFFFFFFFFFFFFF3D
:2003E000FFFFFFFFFFFFFFFFFFFFFFFFFFFFFFFFFFFFFFFFFFFFFFFFFFFFFFFFFFFFFFFF1D
:20040000D8990208B91E0310151E031045070310950603103D060310ED060310151E031082
:20042000151E0310151E0310151E0310B1040310151E0310151E0310151E0310E51C03103C
:2004400095C70410A9C70410BDC70410D1C70410151E0310151E0310151E0310151E03104C
:20046000151E0310151E0310151E0310151E0310151E0310151E0310151E0310151E03104C
:2004800003B400B5E64600B50FB4EFF3038005490840054908430790044806900620C04316
:2004A0008646704700000FF800000001A3040310002805D0012807D04FF0120401F0AEBC4A
:2004C00083F3118895460847EFF3148020F0010181F3148800F001007047000072B6EFF399
:2004E000118001B54FF0400181F3118862B6EFF3148003B420F0030080F31488BFF36F8F11
:2005000001220B480168026003B4084A904703BC016003BC80F31488BFF36F8F71B6BDE850
:20052000014080F3118861B6704700BF05AA06104CA7010872B6EFF3118001B54FF040014F
:2005400081F3118862B6EFF3148003B420F0030080F31488BFF36F8F02220B480168026035
:2005600003B4084A904703BC016003BC80F31488BFF36F8F71B6BDE8014080F3118861B6CD
:20058000704700BF6DAA06104CA7010872B6EFF3118001B54FF0400181F3118862B6EFF3E4
:2005A000148003B420F0030080F31488BFF36F8F03220B480168026003B4084A904703BC3C
:2005C000016003BC80F31488BFF36F8F71B6BDE8014080F3118861B6704700BFEDA80610EB
:2005E0004CA7010872B6EFF3118001B54FF0400181F3118862B6EFF3148003B420F00300C9
:2006000080F31488BFF36F8F04220B480168026003B4084A904703BC016003BC80F3148809
:20062000BFF36F8F71B6BDE8014080F3118861B6704700BF35A906104CA7010872B6EFF36A
:20064000118001B54FF0200181F3118862B6EFF3148003B420F0030080F31488BFF36F8FCF
:2006600005220B480168026003B4084A904703BC016003BC80F31488BFF36F8F71B6BDE8EB
:20068000014080F3118861B6704700BFC1AC06104CA7010872B6EFF3118001B54FF0200150
:2006A00081F3118862B6EFF3148003B420F0030080F31488BFF36F8F06220B4801680260D0
:2006C00003B4084A904703BC016003BC80F31488BFF36F8F71B6BDE8014080F3118861B66C
:2006E000704700BFBFAB06104CA7010872B6EFF3118001B54FF0200181F3118862B6EFF350
:20070000148003B420F0030080F31488BFF36F8F07220B480168026003B4084A904703BCD6
:20072000016003BC80F31488BFF36F8F71B6BDE8014080F3118861B6704700BF55AD06101C
:200740004CA7010801B5EFF3148003B420F0030080F31488BFF36F8F0822094801680260A2
:2007600003B4064A904703BC016003BC80F31488BFF36F8FBDE80140704700BF33AB0610AD
:200780004CA7010872B64FF000014FF0A00201F055BB00BF72B64FF001014FF0A00201F019
:2007A0004DBB00BF72B64FF002014FF0A00201F045BB00BF72B64FF003014FF0A00201F03A
:2007C0003DBB00BF72B64FF004014FF0A00201F035BB00BF72B64FF005014FF0A00201F036
:2007E0002DBB00BF72B64FF006014FF0A00201F025BB00BF72B64FF007014FF0A00201F032
:200800001DBB00BF72B64FF008014FF0A00201F015BB00BF72B64FF009014FF0A00201F02D
:200820000DBB00BF72B64FF00A014FF0A00201F005BB00BF72B64FF00B014FF0A00201F029
:20084000FDBA00BF72B64FF00C014FF0A00201F0F5BA00BF72B64FF00D014FF0A00201F027
:20086000EDBA00BF72B64FF00E014FF0A00201F0E5BA00BF72B64FF00F014FF0A00201F023
:20088000DDBA00BF72B64FF010014FF0A00201F0D5BA00BF72B64FF011014FF0A00201F01F
:2008A000CDBA00BF72B64FF012014FF0A00201F0C5BA00BF72B64FF013014FF0A00201F01B
:2008C000BDBA00BF72B64FF014014FF0A00201F0B5BA00BF72B64FF015014FF0A00201F017
:2008E000ADBA00BF72B64FF016014FF0A00201F0A5BA00BF72B64FF017014FF0A00201F013
:200900009DBA00BF72B64FF018014FF0A00201F095BA00BF72B64FF019014FF0A00201F00E
:200920008DBA00BF72B64FF01A014FF0A00201F085BA00BF72B64FF01B014FF0A00201F00A
:200940007DBA00BF72B64FF01C014FF0A00201F075BA00BF72B64FF01D014FF0A00201F006
:200960006DBA00BF72B64FF01E014FF0A00201F065BA00BF72B64FF01F014FF0A00201F002
:200980005DBA00BF72B64FF020014FF0A00201F055BA00BF72B64FF021014FF0A00201F0FE
:2009A0004DBA00BF72B64FF022014FF0A00201F045BA00BF72B64FF023014FF0A00201F0FA
:2009C0003DBA00BF72B64FF024014FF0A00201F035BA00BF72B64FF025014FF0A00201F0F6
:2009E0002DBA00BF72B64FF026014FF0A00201F025BA00BF72B64FF027014FF0A00201F0F2
:200A00001DBA00BF72B64FF028014FF0A00201F015BA00BF72B64FF029014FF0A00201F0ED
:200A20000DBA00BF72B64FF02A014FF0A00201F005BA00BF72B64FF02B014FF0A00201F0E9
:200A4000FDB900BF72B64FF02C014FF0A00201F0F5B900BF72B64FF02D014FF0A00201F0E7
:200A6000EDB900BF72B64FF02E014FF0A00201F0E5B900BF72B64FF02F014FF0A00201F0E3
:200A8000DDB900BF72B64FF030014FF0A00201F0D5B900BF72B64FF031014FF0A00201F0DF
:200AA000CDB900BF72B64FF032014FF0A00201F0C5B900BF72B64FF033014FF0A00201F0DB
:200AC000BDB900BF72B64FF034014FF0A00201F0B5B900BF72B64FF035014FF0A00201F0D7
:200AE000ADB900BF72B64FF036014FF0A00201F0A5B900BF72B64FF037014FF0A00201F0D3
:200B00009DB900BF72B64FF038014FF0A00201F095B900BF72B64FF039014FF0A00201F0CE
:200B20008DB900BF72B64FF03A014FF0A00201F085B900BF72B64FF03B014FF0A00201F0CA
:200B40007DB900BF72B64FF03C014FF0A00201F075B900BF72B64FF03D014FF0A00201F0C6
:200B60006DB900BF72B64FF03E014FF0A00201F065B900BF72B64FF03F014FF0A00201F0C2
:200B80005DB900BF72B64FF040014FF0A00201F055B900BF72B64FF041014FF0A00201F0BE
:200BA0004DB900BF72B64FF042014FF0A00201F045B900BF72B64FF043014FF0A00201F0BA
:200BC0003DB900BF72B64FF044014FF0A00201F035B900BF72B64FF045014FF0A00201F0B6
:200BE0002DB900BF72B64FF046014FF0A00201F025B900BF72B64FF047014FF0A00201F0B2
:200C00001DB900BF72B64FF048014FF0A00201F015B900BF72B64FF049014FF0A00201F0AD
:200C20000DB900BF72B64FF04A014FF0A00201F005B900BF72B64FF04B014FF0A00201F0A9
:200C4000FDB800BF72B64FF04C014FF0A00201F0F5B800BF72B64FF04D014FF0A00201F0A7
:200C6000EDB800BF72B64FF04E014FF0A00201F0E5B800BF72B64FF04F014FF0A00201F0A3
:200C8000DDB800BF72B64FF050014FF0A00201F0D5B800BF72B64FF051014FF0A00201F09F
:200CA000CDB800BF72B64FF052014FF0A00201F0C5B800BF72B64FF053014FF0A00201F09B
:200CC000BDB800BF72B64FF054014FF0A00201F0B5B800BF72B64FF055014FF0A00201F097
:200CE000ADB800BF72B64FF056014FF0A00201F0A5B800BF72B64FF057014FF0A00201F093
:200D00009DB800BF72B64FF058014FF0A00201F095B800BF72B64FF059014FF0A00201F08E
:200D20008DB800BF72B64FF05A014FF0A00201F085B800BF72B64FF05B014FF0A00201F08A
:200D40007DB800BF72B64FF05C014FF0A00201F075B800BF72B64FF05D014FF0A00201F086
:200D60006DB800BF72B64FF05E014FF0A00201F065B800BF72B64FF05F014FF0A00201F082
:200D80005DB800BF72B64FF060014FF0A00201F055B800BF72B64FF061014FF0A00201F07E
:200DA0004DB800BF72B64FF062014FF0A00201F045B800BF72B64FF063014FF0A00201F07A
:200DC0003DB800BF72B64FF064014FF0A00201F035B800BF72B64FF065014FF0A00201F076
:200DE0002DB800BF72B64FF066014FF0A00201F025B800BF72B64FF067014FF0A00201F072
:200E00001DB800BF72B64FF068014FF0A00201F015B800BF72B64FF069014FF0A00201F06D
:200E20000DB800BF72B64FF06A014FF0A00201F005B800BF72B64FF06B014FF0A00200F06A
:200E4000FDBF00BF72B64FF06C014FF0A00200F0F5BF00BF72B64FF06D014FF0A00200F059
:200E6000EDBF00BF72B64FF06E014FF0A00200F0E5BF00BF72B64FF06F014FF0A00200F055
:200E8000DDBF00BF72B64FF070014FF0A00200F0D5BF00BF72B64FF071014FF0A00200F051
:200EA000CDBF00BF72B64FF072014FF0A00200F0C5BF00BF72B64FF073014FF0A00200F04D
:200EC000BDBF00BF72B64FF074014FF0A00200F0B5BF00BF72B64FF075014FF0A00200F049
:200EE000ADBF00BF72B64FF076014FF0A00200F0A5BF00BF72B64FF077014FF0A00200F045
:200F00009DBF00BF72B64FF078014FF0A00200F095BF00BF72B64FF079014FF0A00200F040
:200F20008DBF00BF72B64FF07A014FF0A00200F085BF00BF72B64FF07B014FF0A00200F03C
:200F40007DBF00BF72B64FF07C014FF0A00200F075BF00BF72B64FF07D014FF0A00200F038
:200F60006DBF00BF72B64FF07E014FF0A00200F065BF00BF72B64FF07F014FF0A00200F034
:200F80005DBF00BF72B64FF080014FF0A00200F055BF00BF72B64FF081014FF0A00200F030
:200FA0004DBF00BF72B64FF082014FF0A00200F045BF00BF72B64FF083014FF0A00200F02C
:200FC0003DBF00BF72B64FF084014FF0A00200F035BF00BF72B64FF085014FF0A00200F028
:200FE0002DBF00BF72B64FF086014FF0A00200F025BF00BF72B64FF087014FF0A00200F024
:201000001DBF00BF72B64FF088014FF0A00200F015BF00BF72B64FF089014FF0A00200F01F
:201020000DBF00BF72B64FF08A014FF0A00200F005BF00BF72B64FF08B014FF0A00200F01B
:20104000FDBE00BF72B64FF08C014FF0A00200F0F5BE00BF72B64FF08D014FF0A00200F019
:20106000EDBE00BF72B64FF08E014FF0A00200F0E5BE00BF72B64FF08F014FF0A00200F015
:20108000DDBE00BF72B64FF090014FF0A00200F0D5BE00BF72B64FF091014FF0A00200F011
:2010A000CDBE00BF72B64FF092014FF0A00200F0C5BE00BF72B64FF093014FF0A00200F00D
:2010C000BDBE00BF72B64FF094014FF0A00200F0B5BE00BF72B64FF095014FF0A00200F009
:2010E000ADBE00BF72B64FF096014FF0A00200F0A5BE00BF72B64FF097014FF0A00200F005
:201100009DBE00BF72B64FF098014FF0A00200F095BE00BF72B64FF099014FF0A00200F000
:201120008DBE00BF72B64FF09A014FF0A00200F085BE00BF72B64FF09B014FF0A00200F0FC
:201140007DBE00BF72B64FF09C014FF0A00200F075BE00BF72B64FF09D014FF0A00200F0F8
:201160006DBE00BF72B64FF09E014FF0A00200F065BE00BF72B64FF09F014FF0A00200F0F4
:201180005DBE00BF72B64FF0A0014FF0A00200F055BE00BF72B64FF0A1014FF0A00200F0F0
:2011A0004DBE00BF72B64FF0A2014FF0A00200F045BE00BF72B64FF0A3014FF0A00200F0EC
:2011C0003DBE00BF72B64FF0A4014FF0A00200F035BE00BF72B64FF0A5014FF0A00200F0E8
:2011E0002DBE00BF72B64FF0A6014FF0A00200F025BE00BF72B64FF0A7014FF0A00200F0E4
:201200001DBE00BF72B64FF0A8014FF0A00200F015BE00BF72B64FF0A9014FF0A00200F0DF
:201220000DBE00BF72B64FF0AA014FF0A00200F005BE00BF72B64FF0AB014FF0A00200F0DB
:20124000FDBD00BF72B64FF0AC014FF0A00200F0F5BD00BF72B64FF0AD014FF0A00200F0D9
:20126000EDBD00BF72B64FF0AE014FF0A00200F0E5BD00BF72B64FF0AF014FF0A00200F0D5
:20128000DDBD00BF72B64FF0B0014FF0A00200F0D5BD00BF72B64FF0B1014FF0A00200F0D1
:2012A000CDBD00BF72B64FF0B2014FF0A00200F0C5BD00BF72B64FF0B3014FF0A00200F0CD
:2012C000BDBD00BF72B64FF0B4014FF0A00200F0B5BD00BF72B64FF0B5014FF0A00200F0C9
:2012E000ADBD00BF72B64FF0B6014FF0A00200F0A5BD00BF72B64FF0B7014FF0A00200F0C5
:201300009DBD00BF72B64FF0B8014FF0A00200F095BD00BF72B64FF0B9014FF0A00200F0C0
:201320008DBD00BF72B64FF0BA014FF0A00200F085BD00BF72B64FF0BB014FF0A00200F0BC
:201340007DBD00BF72B64FF0BC014FF0A00200F075BD00BF72B64FF0BD014FF0A00200F0B8
:201360006DBD00BF72B64FF0BE014FF0A00200F065BD00BF72B64FF0BF014FF0A00200F0B4
:201380005DBD00BF72B64FF0C0014FF0A00200F055BD00BF72B64FF0C1014FF0A00200F0B0
:2013A0004DBD00BF72B64FF0C2014FF0A00200F045BD00BF72B64FF0C3014FF0A00200F0AC
:2013C0003DBD00BF72B64FF0C4014FF0A00200F035BD00BF72B64FF0C5014FF0A00200F0A8
:2013E0002DBD00BF72B64FF0C6014FF0A00200F025BD00BF72B64FF0C7014FF0A00200F0A4
:201400001DBD00BF72B64FF0C8014FF0A00200F015BD00BF72B64FF0C9014FF0A00200F09F
:201420000DBD00BF72B64FF0CA014FF0A00200F005BD00BF72B64FF0CB014FF0A00200F09B
:20144000FDBC00BF72B64FF0CC014FF0A00200F0F5BC00BF72B64FF0CD014FF0A00200F099
:20146000EDBC00BF72B64FF0CE014FF0A00200F0E5BC00BF72B64FF0CF014FF0A00200F095
:20148000DDBC00BF72B64FF0D0014FF0A00200F0D5BC00BF72B64FF0D1014FF0A00200F091
:2014A000CDBC00BF72B64FF0D2014FF0A00200F0C5BC00BF72B64FF0D3014FF0A00200F08D
:2014C000BDBC00BF72B64FF0D4014FF0A00200F0B5BC00BF72B64FF0D5014FF0A00200F089
:2014E000ADBC00BF72B64FF0D6014FF0A00200F0A5BC00BF72B64FF0D7014FF0A00200F085
:201500009DBC00BF72B64FF0D8014FF0A00200F095BC00BF72B64FF0D9014FF0A00200F080
:201520008DBC00BF72B64FF0DA014FF0A00200F085BC00BF72B64FF0DB014FF0A00200F07C
:201540007DBC00BF72B64FF0DC014FF0A00200F075BC00BF72B64FF0DD014FF0A00200F078
:201560006DBC00BF72B64FF0DE014FF0A00200F065BC00BF72B64FF0DF014FF0A00200F074
:201580005DBC00BF72B64FF0E0014FF0A00200F055BC00BF72B64FF0E1014FF0A00200F070
:2015A0004DBC00BF72B64FF0E2014FF0A00200F045BC00BF72B64FF0E3014FF0A00200F06C
:2015C0003DBC00BF72B64FF0E4014FF0A00200F035BC00BF72B64FF0E5014FF0A00200F068
:2015E0002DBC00BF72B64FF0E6014FF0A00200F025BC00BF72B64FF0E7014FF0A00200F064
:201600001DBC00BF72B64FF0E8014FF0A00200F015BC00BF72B64FF0E9014FF0A00200F05F
:201620000DBC00BF72B64FF0EA014FF0A00200F005BC00BF72B64FF0EB014FF0A00200F05B
:20164000FDBB00BF72B64FF0EC014FF0A00200F0F5BB00BF72B64FF0ED014FF0A00200F059
:20166000EDBB00BF72B64FF0EE014FF0A00200F0E5BB00BF72B64FF0EF014FF0A00200F055
:20168000DDBB00BF72B64FF0F0014FF0A00200F0D5BB00BF72B64FF0F1014FF0A00200F051
:2016A000CDBB00BF72B64FF0F2014FF0A00200F0C5BB00BF72B64FF0F3014FF0A00200F04D
:2016C000BDBB00BF72B64FF0F4014FF0A00200F0B5BB00BF72B64FF0F5014FF0A00200F049
:2016E000ADBB00BF72B64FF0F6014FF0A00200F0A5BB00BF72B64FF0F7014FF0A00200F045
:201700009DBB00BF72B64FF0F8014FF0A00200F095BB00BF72B64FF0F9014FF0A00200F040
:201720008DBB00BF72B64FF0FA014FF0A00200F085BB00BF72B64FF0FB014FF0A00200F03C
:201740007DBB00BF72B64FF0FC014FF0A00200F075BB00BF72B64FF0FD014FF0A00200F038
:201760006DBB00BF72B64FF0FE014FF0A00200F065BB00BF72B64FF0FF014FF0A00200F034
:201780005DBB00BF72B64FF480714FF0A00200F055BB00BF72B640F201114FF0A00200F039
:2017A0004DBB00BF72B64FF481714FF0A00200F045BB00BF72B640F203114FF0A00200F036
:2017C0003DBB00BF72B64FF482714FF0A00200F035BB00BF72B640F205114FF0A00200F033
:2017E0002DBB00BF72B64FF483714FF0A00200F025BB00BF72B640F207114FF0A00200F030
:201800001DBB00BF72B64FF484714FF0A00200F015BB00BF72B640F209114FF0A00200F02C
:201820000DBB00BF72B64FF485714FF0A00200F005BB00BF72B640F20B114FF0A00200F029
:20184000FDBA00BF72B64FF486714FF0A00200F0F5BA00BF72B640F20D114FF0A00200F028
:20186000EDBA00BF72B64FF487714FF0A00200F0E5BA00BF72B640F20F114FF0A00200F025
:20188000DDBA00BF72B64FF488714FF0A00200F0D5BA00BF72B640F211114FF0A00200F022
:2018A000CDBA00BF72B64FF489714FF0A00200F0C5BA00BF72B640F213114FF0A00200F01F
:2018C000BDBA00BF72B64FF48A714FF0A00200F0B5BA00BF72B640F215114FF0A00200F01C
:2018E000ADBA00BF72B64FF48B714FF0A00200F0A5BA00BF72B640F217114FF0A00200F019
:201900009DBA00BF72B64FF48C714FF0A00200F095BA00BF72B640F219114FF0A00200F015
:201920008DBA00BF72B64FF48D714FF0A00200F085BA00BF72B640F21B114FF0A00200F012
:201940007DBA00BF72B64FF48E714FF0A00200F075BA00BF72B640F21D114FF0A00200F00F
:201960006DBA00BF72B64FF48F714FF0A00200F065BA00BF72B640F21F114FF0A00200F00C
:201980005DBA00BF72B64FF490714FF0A00200F055BA00BF72B640F221114FF0A00200F009
:2019A0004DBA00BF72B64FF491714FF0A00200F045BA00BF72B640F223114FF0A00200F006
:2019C0003DBA00BF72B64FF492714FF0A00200F035BA00BF72B640F225114FF0A00200F003
:2019E0002DBA00BF72B64FF493714FF0A00200F025BA00BF72B640F227114FF0A00200F000
:201A00001DBA00BF72B64FF494714FF0A00200F015BA00BF72B640F229114FF0A00200F0FC
:201A20000DBA00BF72B64FF495714FF0A00200F005BA00BF72B640F22B114FF0A00200F0F9
:201A4000FDB900BF72B64FF496714FF0A00200F0F5B900BF72B640F22D114FF0A00200F0F8
:201A6000EDB900BF72B64FF497714FF0A00200F0E5B900BF72B640F22F114FF0A00200F0F5
:201A8000DDB900BF72B64FF498714FF0A00200F0D5B900BF72B640F231114FF0A00200F0F2
:201AA000CDB900BF72B64FF499714FF0A00200F0C5B900BF72B640F233114FF0A00200F0EF
:201AC000BDB900BF72B64FF49A714FF0A00200F0B5B900BF72B640F235114FF0A00200F0EC
:201AE000ADB900BF72B64FF49B714FF0A00200F0A5B900BF72B640F237114FF0A00200F0E9
:201B00009DB900BF72B64FF49C714FF0A00200F095B900BF72B640F239114FF0A00200F0E5
:201B20008DB900BF72B64FF49D714FF0A00200F085B900BF72B640F23B114FF0A00200F0E2
:201B40007DB900BF72B64FF49E714FF0A00200F075B900BF72B640F23D114FF0A00200F0DF
:201B60006DB900BF72B64FF49F714FF0A00200F065B900BF72B640F23F114FF0A00200F0DC
:201B80005DB900BF72B64FF4A0714FF0A00200F055B900BF72B640F241114FF0A00200F0D9
:201BA0004DB900BF72B64FF4A1714FF0A00200F045B900BF72B640F243114FF0A00200F0D6
:201BC0003DB900BF72B64FF4A2714FF0A00200F035B900BF72B640F245114FF0A00200F0D3
:201BE0002DB900BF72B64FF4A3714FF0A00200F025B900BF72B640F247114FF0A00200F0D0
:201C00001DB900BF72B64FF4A4714FF0A00200F015B900BF72B640F249114FF0A00200F0CC
:201C20000DB900BF72B64FF4A5714FF0A00200F005B900BF72B640F24B114FF0A00200F0C9
:201C4000FDB800BF72B64FF4A6714FF0A00200F0F5B800BF72B640F24D114FF0A00200F0C8
:201C6000EDB800BF72B64FF4A7714FF0A00200F0E5B800BF72B640F24F114FF0A00200F0C5
:201C8000DDB800BF72B64FF4A8714FF0A00200F0D5B800BF72B640F251114FF0A00200F0C2
:201CA000CDB800BF72B64FF4A9714FF0A00200F0C5B800BF72B640F253114FF0A00200F0BF
:201CC000BDB800BF72B64FF4AA714FF0A00200F0B5B800BF72B640F255114FF0A00200F0BC
:201CE000ADB800BF72B64FF4AB714FF0A00200F0A5B800BF72B640F257114FF0A00200F0B9
:201D00009DB800BF72B64FF4AC714FF0A00200F095B800BF72B640F259114FF0A00200F0B5
:201D20008DB800BF72B64FF4AD714FF0A00200F085B800BF72B640F25B114FF0A00200F0B2
:201D40007DB800BF72B64FF4AE714FF0A00200F075B800BF72B640F25D114FF0A00200F0AF
:201D60006DB800BF72B64FF4AF714FF0A00200F065B800BF72B640F25F114FF0A00200F0AC
:201D80005DB800BF72B64FF4B0714FF0A00200F055B800BF72B640F261114FF0A00200F0A9
:201DA0004DB800BF72B64FF4B1714FF0A00200F045B800BF72B640F263114FF0A00200F0A6
:201DC0003DB800BF72B64FF4B2714FF0A00200F035B800BF72B640F265114FF0A00200F0A3
:201DE0002DB800BF72B64FF4B3714FF0A00200F025B800BF72B640F267114FF0A00200F0A0
:201E00001DB800BF72B64FF4B4714FF0A00200F015B800004FF0120400F000B84FF02001A3
:201E200081F31188EFF3148121F0030181F31488FEF726FB20461AF0E9BD0000EFF3148354
:201E400023F0030009B480F31488BFF36F8FEFF3118001B5EFF30583002B01D0084B98472F
:201E600082F3118862B6074A904703BC034605BC82F31488BFF36F8F6A464FF0000000DFBC
:201E800081040310F9C70410A0E8F00FA0EC108AC0F800D0C0F804E04FF00000704700BF50
:201EA000B0E8F00FB0EC108AD0F804E0D0F800D04FF001007047FFFF72B63849086800F013
:201EC000100080B9364837490860BFF34F8F00F079F8354E354F87F3088800F03BF83448B2
:201EE000804700F035B83349086820F00B000860BFF34F8F2A482B490860BFF34F8F2D49EB
:201F000008682D4B40EA03000860BFF34F8F2B49086840F0070008602949086840F0070018
:201F20000860BFF34F8FBFF36F8F2249086840F00B000860BFF34F8F00F044F81A4E1B4FED
:201F400087F3088800F006F81948804700F000B8FFF7FEBFE846BD460027002282B0A6F1C3
:201F600008066DE80272B545FBD1C5467047401EFDD1F047002B04D0C318E0E8021298420F
:201F8000FBD1F047002A07D018B4821818C9E0E802349042FAD118BCF04700BF00ED00E0C4
:201FA0000004031008ED00E0D8590208D8990208A72203100C002040000F800090EF00E049
:201FC00094EF00E04F4850494FF0000200F084B84E4901654E4941654E4981654E484F491C
:201FE00000F07AB80121890601654D4941654D4981654D484D4900F06FB800210165012105
:2020000089064165002181653E4808B40021036D23EA0101016501218906436D23EA0101CC
:2020200041650021836D23EA010181653A480021036D23EA0101016501218906436D23EAFE
:20204000010141650021836D23EA0101816508BC3748384900F040B8002101650121C906AE
:20206000416500218165274808B40021036D23EA010101650121C906436D23EA010141652C
:202080000021836D23EA0101816523480021036D23EA010101650121C906436D23EA010119
:2020A00041650021836D23EA0101816508BC08B42149224B41EA03011B4841651148204923
:2020C000436D23EA0101416513481E49436D23EA0101416508BC70470260C260026142616F
:2020E0008261C261026442648264026542658265C0F8C020C0F8C420C0F8C820C0F8CC207B
:20210000084700BF00002140D11F03101F8007F86F02AD2A820A0A0000012140E51F031058
:20212000000052154105053C00022140FB1F031000032140592003100000000400003800F5
:20214000000028000000100070B56D4A00201168102900D101206B4A04466B4811688143B8
:2021600011601168012262F30101664A1160674A1168814311601168012262F30101634ADB
:202180001160634A1168814311601068012262F301005F4A10605F4A1068012262F30300CD
:2021A0005C4A5D4D10605D4A286830F0070028601068502161F3060010601068022161F3D7
:2021C00014401060106861F30C201060106830F000601060106830F040501060106830F03B
:2021E000C0601060106850F0004010604C490868C007FBD54B4B186830F47F401860E86B87
:20220000012363F30300E8630420FFF7B0FEE86B30F03000E863E86B50F00040E86312F020
:20222000B9FA414E00223046114609F0B2FD210003D13046012209F0ACFD686830F007009E
:202240006860E86B022262F30300E8630420FFF78EFE324A106830F000401060294A2A484D
:202260001168814311601168012262F30101254A1160264A1168814311601168012262F3CE
:202280000101224A1160224A1168814311601068012262F301001E4A10601E4A106830F07C
:2022A0000F00106070BD00B584B0204A106850F010001060114A1068C00510D4FFF744FF32
:2022C00008F00AF9134A4FF480011068400202D410680843106016491648086001E008F021
:2022E000FBF8EFF3148030F0030080F31488124A106850F47000106020E000BF000020402C
:2023000000182640C413204000030000001320408013204000002440041226400016264043
:202320004016264008002040AC22081014ED00E01C1526400200008088ED00E0BFF34F8FB4
:20234000BFF36F8F224A23491068084050F000401060EFF3148050F0040080F3148800205C
:2023600080F3138880F3108819F0CEFB00F004FAFEE7F0B581B0054616461F460C46014624
:20238000184642F024FF20B93146384642F01FFF00B1FEE7334621000A462846FFF7EAFDA1
:2023A00001B0F0BDF0B504460F4615461E460146184642F00CFF20B92946304642F007FFE4
:2023C00000B1FEE72A4639462046FFF7DBFDF0BD34EF00E0FFFFFFBF04280FDB104A402008
:2023E00012180120106000BF0220106000BF0120506000BF0320106000BF10E0094A90213C
:202400005218000280180122026000BF0222026000BF0122426000BF0322026000BF7047AE
:2024200000C0264000802640F0B50346084606294AD801A1D1E800F00E1E2C3B07480400D2
:202440001068984304E0D0691843D06110681843106039E0506A18435062111D0A4671C9A5
:2024600050EA0301D843064014EA000310EA05045AC229E0906A18439062101D0246F0C820
:202480001D43D843074014EA00030640E8C21BE0D06A1843D062101D0246F0C81E43D8431E
:2024A000074014EA000310EA0504D8C20CE0106A18431062101D024672C81E43D84311EADE
:2024C00000030440054078C2F0BDF0B581B000F00FFB6A4B044610F130055E684920A8703D
:2024E0001DF060FD09F0B3FDA168E06822460843C04330400021FFF797FF09F0AAFD00F015
:20250000F7FA074609F0A3FD7B6A00930020786209F09FFD009810B100211DF084FD584F2E
:202520003046C046C04609F092FD224630460621FFF77AFF09F08DFD524819F011F94A4B58
:2025400018783870E8784A4B78701878B8705020A8701DF027FD01B0F0BD10B500F0C8FA20
:202560000446C046C046C046C046A06828B9E06818B94249087804F06AFA434CC046C046F9
:202580000120C04620B90220E070C046C04601E00120E07010BD30B500F0AAFA04460020BB
:2025A00004F055FAA06808B9E16869B1E56805432846C046C04609F04AFD22462846042162
:2025C000FFF732FF09F045FD222084F832001DF0E9FC2C4819F0F2FA30BD00B500F088FA3A
:2025E0003230007830B9102320220A20002132F095FA05E0FFF769FFFFF7AFFFFFF7CBFF00
:20260000002000BDF0B5074600F072FA04463230007808B9102302E0F80505D117230C225A
:202620000A203CF0E5FA49E0144B00265868074009F00DFD40F2FF11A06822460843C043AD
:20264000384005460121FFF7EFFE2246C7F308000221FFF7E9FE09F0FCFC304624E0E9072D
:2026600020D50B490B4A17E048A5010800000000EC9B01080000000000000000A80008107F
:2026800000580008B4260810B0690008000000005C570710B4F30710095C4900895A8E42DE
:2026A00000D20E466D080130002DD8D109F0CFFC208EB04200D2268609F0CBFCF0BD70B504
:2026C000002504F07EF906462C46494911EB8400817841B1B14206D1C178012212FA01F08C
:2026E000FFF790FF01250134092C01D2012DECD170BD30B53F4CC046C046206800F0E8F905
:202700003D4800210A4606C0FFF7D9FF25683B4A687E5028107005D100F0EAF9A97E80F8F7
:20272000331004E0902802D13549A87E08703549684608602068007C19F0CCFC20B1002071
:20274000C0460028FBD1FEE730BD30B50546006801241DF03DFB01280CD12B49A868884257
:2027600008D12A4A23F044FB04D12949E868884200D10024204630BD10B500F0B9F925493C
:202780003422044642F0A1FA112084F8320000F051F911F00BFD174B186008B9122303E0F7
:2027A000FFF7D3FF28B11B230A2001223CF020FA01E0FFF79EFF10BD10B500F099F910F11E
:2027C0003204207828B910231A220A203CF010FA0AE0122020700EF02EF800201DF01FFE61
:2027E000302020701DF0DEFB10BD0000000000BFB8000810685F00084CA5010848A50108F8
:20280000EC9B010820A70108016A1FFBDC000810708C537674000810000030B500F068F958
:20282000054632300078040006D1214610230D220A2032F073F904E009F009FCAC6809F028
:2028400008FC204630BD30B5054600F051F904463230007828B9102316220A203CF0C8F930
:202860000BE009F0F4FB224628460021FFF7DCFDA0692843A06109F0ECFB30BD30B500F0A8
:2028800037F9054632300078040006D12146102315220A2032F042F904E009F0D8FBEC68AC
:2028A00009F0D7FB204630BD0000F0B583B00022019200F01DF910F132070446387828B952
:2028C000102318220A203CF093F9ACE0112800F0AA80122800F0A78009F0B9FBA0696669F4
:2028E000864366610020E168A0610091218EA568029109F0AEFB3878222805D1009818B12B
:20290000302038701DF04EFB00F0F2F8074609F09EFB796A00910020786209F09AFB00981C
:2029200010B100211DF07FFB00F0E2F80AE0C0460000000000000000000000000000000074
:2029400000000000074609F082FBB96A00910020B86209F07EFB009810B101211DF063FB6E
:2029600000F0C6F8074609F072FBF96A00910020F86209F06EFB009810B102211DF053FB4F
:2029800000F0B6F8009009F062FB00990020CF69C86109F05EFB380002D004211DF043FBCD
:2029A000EDB10298D8B909F052FB224628460321FFF73AFD09F04DFB2846C046C046019590
:2029C000002500F095F8074609F041FB3B6A02933D6209F03EFB029803211DF024FB35EABF
:2029E000060002D0C046C0462E46280001D0C046C04609F02CFB208E013800D32086606931
:202A00000199304388436061084D09F022FBE87848B1074A02280CBF0121002110882FF019
:202A2000B1FE0020E87003B0F0BD0000B0690008B400081000B51AF00BF831F0F5FF32F029
:202A40000EF800BD00B50F2841D801A1D1E800F0080B0E12161A1D202326292D3135393C49
:202A600007F0B8FC33E032F0CEF930E021482FF09DFB2CE0204807F03FFE28E01F4800F078
:202A80004DF824E00FF077F921E00FF07FF81EE00EF086FD1BE001F0D7F918E009F0B6F92C
:202AA00015E017480FF0CCFC11E016481BF0FEF90DE0154802F03EFF09E0144808F0E9F813
:202AC00005E00FF058FB02E0114801F0E3F900BD10B5002406E041690918085DFFF7B2FF54
:202AE0000134E4B20B4A1068017E8C42F3D310BD0948704757F3071060100810E000081075
:202B0000542608106063081054030810FC200810BC020810685F000854A5010810B50446EF
:202B200000F0F2FA28B90E210120BDE8104000F04EBA00F07AFA012804D10D21BDE8104016
:202B400000F045BA204600F0B0FBE07CBDE8104000F0EDBB30B50546002400F066FA0128CF
:202B600007D145F66C71C0F60001086800F0CCFA08B90A210EE045F66C71C0F6000108686F
:202B8000008A854228BF142104D22846BDE8304000F0C3BA032000F01AFA204630BD30B5A3
:202BA0000546002400F041FA012807D145F66C71C0F60001086800F0A7FA08B90A210EE0D0
:202BC00045F66C71C0F600010868008A854228BF142104D22846BDE8304000F0C8BA04205A
:202BE00000F0F5F9204630BD09F0A1B930B504460D4600F01AFA012807D145F66C71C0F6FC
:202C00000001086800F080FA28B90A210520BDE8304000F0DCB945F66C71C0F600010868CF
:202C2000008A844205D314210520BDE8304000F0CEB92946204600F05BFD012805D0152135
:202C40000520BDE8304000F0C2B919F0EDFA204600F0E1F9022807D119F01EF80B2105203D
:202C6000BDE8304000F0B3B92946204600F060FC19F012F830BD10B5044600F0D6F90128CB
:202C800007D145F66C71C0F60001086800F03CFA28B90A210620BDE8104000F098B945F654
:202CA0006C71C0F600010868008A844205D314210620BDE8104000F08AB92046BDE810400A
:202CC00000F054BC10B5044600F0AFF9012807D145F66C71C0F60001086800F015FA28B92D
:202CE0000A210720BDE8104000F071B945F66C72C0F600021168088A844206D2C4EBC40284
:202D0000086810EB8200806828B914210720BDE8104000F05CB920460121BDE8104000F03A
:202D200054BA10B5044600F080F9012807D145F66C71C0F60001086800F0E6F928B90A21F2
:202D40000820BDE8104000F042B945F66C72C0F600021168088A844206D2C4EBC40208680C
:202D600010EB8200806828B914210820BDE8104000F02DB920460021BDE8104000F025BA9A
:202D800010B5044600F051F9012807D145F66C71C0F60001086800F0B7F928B90A210920D5
:202DA000BDE8104000F013B9052C18BF032C05D01F210920BDE8104000F009B9204600F0F0
:202DC000FCFA012818BF10BD45F66C71C0F600010868C17C2046BDE8104000F047BB10B5A2
:202DE000044600F022F9012807D145F66C71C0F60001086800F088F928B90A210846BDE8CE
:202E0000104000F0E4B845F66C71C0F600010868008A844204D2204600F0C5FB012805D05D
:202E200014210A20BDE8104000F0D1B820460021BDE8104000F001BA10B5044600F0F5F8B2
:202E4000012807D145F66C71C0F60001086800F05BF928B90A210B20BDE8104000F0B7B863
:202E600045F66C71C0F600010868008A844204D2204600F098FB012805D014210B20BDE801
:202E8000104000F0A4B820460121BDE8104000F0D4B910B9162100F09AB8422101806421F1
:202EA0004180012101710D2242718171704770B501240E0004D116210D2000F088F82BE026
:202EC000054600F0B2F8012807D145F66C71C0F60001086800F018F920B90A210D2000F0AB
:202EE00076F819E0284600F06FFB012804D017210D2000F06CF80FE000F09DF8052804D177
:202F00000C210D2000F063F806E03146284600F0F6FC012808BF0024204670BD30B5044689
:202F20000D4645F66C71C0F60001086800F0ECF878B145F66C72C0F600021168C968600027
:202F4000445A4FF6FF70844224D000F06EF8012808D02221FF2000F03AF82846BDE8304007
:202F600000F0F7BC204600F008FC012818BF30BD204600F0D0FB012818BF30BD45F66C7141
:202F8000C0F600010868806850F82400BDE8304011F010B92846BDE8304000F0DABC45F693
:202FA0006C72C0F600021168C0EBC000096801EB80008068004745F66C71C0F6000108684C
:202FC000704745F66C71C0F600010860704730B504460D4602460B4600216420C046C04680
:202FE0002B46224600216420BDE8304031F096BDC0EB800041F2B831C0F6020151F8200061
:203000007047C0EB800041F2B831C0F6020101EB8000807A7047C0EB800041F2B831C0F6DF
:20302000020101EB8000007A704745F67071C0F600014878704745F67071C0F60001087853
:203040007047C0EB800041F2B832C0F6020202EB800041727047C0EB800041F2B832C0F6E2
:20306000020242F820107047C0EB800041F2B832C0F6020202EB80004160704741F23042BF
:20308000C0F6020242F830107047C0EB800041F2B832C0F6020202EB8000C172704741F2B9
:2030A0003042C0F6020202EBC00041717047C0EB800041F2B833C0F6020303EB8000837A5F
:2030C000012A0CBF1940194381727047C0EB800041F2B832C0F6020202EB80000172704702
:2030E00041F23042C0F6020202EBC0000171704745F67071C0F600014870704745F670713D
:20310000C0F600010870704740F2E002C1F2080290420CBF01200020704770B50446FFF7FE
:203120004AFF0568C4EBC40105EB81052046FFF772FF012819D00646E87D10F0010F0ED170
:203140002046FFF755FF042E08BF70BD044668688047826921462846BDE87040104768687C
:20316000804741692846884770BD002070BD30B50546FFF720FF0468C5EBC50104EB81048C
:203180002846FFF748FF01281DD0E17D11F0010F0DD1042817D02846FFF72AFF054660686E
:2031A0008047026A29462046BDE8304010472846FFF71EFF054660688047C2692946204640
:2031C000BDE830401047002030BD70B505460E46FFF7F1FEC5EBC502046804EB820408F07D
:2031E000A4FE2846012E11D100220221FFF75FFFE07D10F0010F1CD060688047026920465C
:2032000031469047BDE87040FFF7EEBC0122FD21FFF74DFFE07D10F0010F0AD02846FFF73D
:20322000F0FE400705D4606880470269204600219047BDE87040FFF7D7BC70B505460E4686
:20324000FFF7B9FEC5EBC502046804EB820408F06CFE2846012E11D100220421FFF727FF25
:20326000E07D10F0010F1CD0606880470269204631469047BDE87040FFF7B6BC0122FB214B
:20328000FFF715FFE07D10F0010F0AD02846FFF7B8FE800705D460688047026920460021E2
:2032A0009047BDE87040FFF79FBCF0B50746FFF788FE0020FFF71CFF0320FFF71FFF08F0C3
:2032C00034FE398A00248C422AD2200C06460121FFF7FCFE200C01220021FFF7E8FE200C09
:2032E0000021FFF7B8FE200C0021FFF7AAFEC6EBC6013A6802EB810569688847426A2846CF
:203300000021904729693046FFF7AEFE297E3046FFF7BBFE04F58034398AB1EB144FD4D824
:2033200008F005FE0120BDE8F040FFF7E1BE2DE9F0448246FFF73FFE054608F0F6FDA87C68
:20334000002787421DD23E0CC6EBC600696801EB800460688047426A514620469047304607
:203360000221FFF7BDFE21693046FFF787FE217E3046FFF794FE07F58037A87CB0EB174F89
:20338000E1D8BAF1000F14D1824512D25646300CC0EBC0006C6804EB800460688047826A25
:2033A000E1682046904706F58036A97CB1EB164FEDD8BDE8F044FFF717BC2DE9F0440546B4
:2033C0000124FFF7F8FD824608F0AFFDFFF733FE032808BF052D37D1BAF810000025854270
:2033E0002CD2280CFFF717FE022820D1280C0646FFF707FE41070BD530460021FFF721FE26
:2034000005F58035BAF81020B2EB154FE9D815E0C6EBC601DAF8002002EB810779688847D5
:2034200001683846884730460321FFF74FFE05F58035BAF81020B2EB154FD2D80520FFF7A2
:203440005DFE08F074FD0EE0FFF7F5FD052808BF032D05D12846FFF751FE08F068FD02E0E6
:20346000002408F064FD2046BDE8F0842DE9F04404468A46FFF79FFD064608F056FD052C92
:2034800024D1B07C002787424ED2390CC1EBC101746804EB81046168884701680546204646
:2034A00088475FEA0A0103D02B6B204600229847380C0321FFF714FE07F58037B27CB2EB2B
:2034C000174FE2D8BDE8F044FFF78EBB032C2BD1B07C0027874227D2390CC1EBC1017468E5
:2034E00004EB810461688847054620465FEA0A010DD02B6B01229847380C0221FFF7F0FDFC
:2035000007F58037B27CB2EB174FE5D80CE0AA6AE1689047380C0221FFF7E2FD07F58037FB
:20352000B27CB2EB174FD7D8BDE8F044FFF75CBB70B506460D46FFF73EFD0468C6EBC601EC
:20354000304604EB81040221FFF7C0FD30460021FFF777FD29463046FFF77DFD60688047C6
:20356000826A29462046BDE87040104730B50546FFF721FDC5EBC501046804EB810408F04C
:20358000D4FC2846FFF747FD022808D16068804701682046884728460321FFF797FDBDE8C2
:2035A0003040FFF721BB30B505460024FFF703FDC5EBC501006800EB8100C07D10F0020FE7
:2035C00018BF0124204630BDF0B505460024FFF7F2FC867C2146F30872D04268C1EBC107E0
:2035E00002EB8707FF7DC7F34117BD4279D0032F38BFBD4275D30131C1EBC10702EB8707E9
:20360000FF7DC7F34117BD426BD0032F38BFBD4267D30131C1EBC10702EB8707FF7DC7F329
:203620004117BD425DD0032F38BFBD4259D30131C1EBC10702EB8707FF7DC7F34117BD4204
:203640004FD0032F38BFBD424BD30131C1EBC10702EB8707FF7DC7F34117BD4241D0032F14
:2036600038BFBD423DD30131C1EBC10702EB8707FF7DC7F34117BD4233D0032F38BFBD426B
:203680002FD30131C1EBC10702EB8707FF7DC7F34117BD4225D0032F38BFBD4221D3013137
:2036A000C1EBC10702EB8707FF7DC7F34117BD4217D0032F38BFBD4213D30131013B8DD1CD
:2036C00016F0070212D0C1EBC101406800EB8100C17DC1F34117BD4203D0032F38BFBD4233
:2036E00001D20120F0BD1C30013AF1D12046F0BD70B505460E460024FFF75DFCC5EBC5021F
:20370000006800EB8200C068864202D8002E18BF0124204670BD70B505460024FFF74BFC7C
:20372000C5EBC501066806EB810608F0FEFB28460121FFF786FCF07D10F0010F03D1284675
:203740000421FFF7C3FC08F0F2FB2846FFF759FC800706D5FFF76FFC032804BF2846FFF7DC
:203760001EFC2846FFF74DFC400704D5FFF763FC052808BF0124204670BD10B50446FFF75C
:203780001AFCC4EBC401046804EB810408F0CDFB60688047416820468847044608F0C7FB8E
:2037A000204610BDF0B504460D46FFF704FC02460020977C0146FE0800F086805368C1EB79
:2037C000C10C03EB8C0C9CF817C0CCF3411C644500F08D80BCF1030F38BF6445C0F0878053
:2037E0000131C1EBC10C03EB8C0C9CF817C0CCF3411C64457BD0BCF1030F38BF644576D375
:203800000131C1EBC10C03EB8C0C9CF817C0CCF3411C64456BD0BCF1030F38BF644566D374
:203820000131C1EBC10C03EB8C0C9CF817C0CCF3411C64455BD0BCF1030F38BF644556D374
:203840000131C1EBC10C03EB8C0C9CF817C0CCF3411C64454BD0BCF1030F38BF644546D374
:203860000131C1EBC10C03EB8C0C9CF817C0CCF3411C64453BD0BCF1030F38BF644536D374
:203880000131C1EBC10C03EB8C0C9CF817C0CCF3411C64452BD0BCF1030F38BF644526D374
:2038A0000131C1EBC10C03EB8C0C9CF817C0CCF3411C64451BD0BCF1030F38BF644516D374
:2038C0000131013E7FF47BAF17F0070308BFF0BDC1EBC10C526802EB8C02D67DC6F3411C3E
:2038E000644504D0BCF1030F38BF644502D229800120F0BD1C320131013BEED1F0BD70B554
:2039000081B004460D46FFF756FB0DF1020106462046FFF747FFD0B1BDF802007168C0EBE7
:20392000C00001EB800670688047416930468847012C03D307D02860012008E0C0F30F009A
:203940002860012003E020F07F402860012001B070BD10B5044608F0E8FA204600F052FAFA
:20396000BDE81040FFF740B940F28420C1F20800704730B40268136823F00043136013680E
:20398000B0F8174003F0F00314F0010508BF43F4802314F0040F18BF43F080431360C36815
:2039A0001362037D1B0253640023002918BF0B46936490F815C040F6FF73BCF1000F08BF4B
:2039C00040F6F373002918BF23F44073D3640023200A072898BF03461363200754BF7723E4
:2039E000722314F0100F02D0022060F30613536585F00100906700209060106840F0004092
:203A0000106030BC70470268C07D136823F000431360136843F00043136010F0010F4FF0F5
:203A2000000008BF013911629060106C40F010001064106C70470068016821F0004101603B
:203A4000816C21F0FF018164016841F000410160006870470068012904D10167016F0121C7
:203A60008167704700218167806F70470068806870470068026FD20754BF8068084670473F
:203A800000688068081A70470068026FD2074EBF00208068081A704700684FF6FF720168D6
:203AA00021F0004101600168CBF6F872114001604FF0FF31016200228260416C21F47F41B5
:203AC0004164416C41F480714164816C21F0FF018164C16C41F44371C164016B21F0FF012E
:203AE0000163322141658267806F704700680021C26FD20702D501210167006F0846704772
:203B00000346127A0120022A0FD11A6CD2065ABF5A685FEA02427047C97D11F0010F08D1F6
:203B2000196FC90748BF704703E05968090458BF7047002070470346097A0120022918BF2A
:203B4000042909D1002A08BF7047996C11F0FF018A4208BF704704E0996C11F0FF0F08BFA7
:203B600070470020704703460120127A1B68BAB140F20F72C8F233721A40B2F1004F18BF9E
:203B80000020C97D81EA934212F0010F08BF00209A0F82EA910111F0010F08BF704706E06A
:203BA00040F20F71CCF237710B4208BF70470020704710B40346147A01207CB1022C1AD149
:203BC00091F817C011681A6A1CF0010F02D0914211D00FE0013991420DD00BE08A7D196A98
:203BE000202A03D1B1F1FF3F05D003E04FF6FF72914200D0002010BC7047024601200B7A25
:203C0000126B33B1C97A12F0FF02914208BF704703E012F0FF0F08BF704700207047137AD7
:203C2000426C0120C2F3072223B1097D914208BF704702E0012A08BF70470020704710B406
:203C400004460120127AE46C6AB14A7DC4F381010AB919B101E0032900D0002053B1A105CE
:203C6000890F07D005E0C4F30B0140F6FF72914200D0002010BC704703460120127A5B6D82
:203C8000C2B1C97D11F0080F04D003F00702022A18BF002011F0100F04D0C3F30212022A76
:203CA00018BF002011F0180F18BF7047772B08BF704702E0322B08BF70470020704702465B
:203CC0000B7A012073B113685B0306D4897A11F0020F08BF11F0040F04D0916FC90748BFCC
:203CE000704703E0916FC90758BF7047002070472DE9F044074615469A460668487801288C
:203D000038D1107A00286ED039463046FFF7F8FE5246294604463046FFF70DFF2A46394611
:203D200004403046FFF71FFF2A46394604403046FFF73FFF294604403046FFF75EFF2A46EC
:203D4000394604403046FFF76AFF53462A46394604403046FFF773FF2A4639460440304678
:203D6000FFF78AFF294604403046FFF7A8FF2040BDE8F084B8BB107AA8BB39463046FFF73A
:203D8000F2FE0446B1680120002918BF00202A46394604403046FFF70CFF294604403046BC
:203DA000FFF72BFF2A46394604403046FFF737FF5246294604403046FFF7BDFE53462A4693
:203DC000394604403046FFF73AFF2A46394604403046FFF751FF294604403046FFF76FFFFF
:203DE0002040BDE8F0840020BDE8F0840068026822F0004202600163016841F000410160E9
:203E00000068704707210167016F0021816770470068012A036823F000430360836C23F00A
:203E2000FF03836402D1826C0A43826400218160016841F000410160704701684968090489
:203E40004CBF0120002070470E49086850F0010008600D49086850F0010008600B490868BC
:203E600050F0010008600A49086850F001000860704700B50120C04610B1FF2010F0AFF912
:203E800000BD0000C8002140C8012140C8022140C803214030B5044600F0E2FA20B91021B6
:203EA000002000F07DFA21E000F0E4FA012801D10B21F5E7204600F0E3FA002412E02046FA
:203EC00000F0E6FA054600F045FB284600F090FB2846022101F0F8FB2846012101F0FCFBC1
:203EE0000134E4B200F0F1FA8442E8D330BD10B5044600F0BFFA08B9012015E0204600F0C9
:203F0000CEFA040005D11121022000F049FA00200AE001F0DDFB202803D12046012101F010
:203F200098FA204601F0D4FB10BD10B5044600F0A1FA28B90A21032000F032FA002007E010
:203F4000204600F0ACFA08B91121F4E701F0C8FB10BDF0B583B0029001911546089F1E46B4
:203F600000F088FA28B90A21082000F019FA01243AE00198304301D11221F5E7002457EA07
:203F8000050205D04FF48032954201D8974201D91321E9E70DB1019830B107B126B10DB95C
:203FA000019808B917B90EB11621DDE7029800F076FA029008B91121D6E701F089FB022842
:203FC00001D00C21D0E707F0B4FF00973346029801992A4600F038FB029800F0F7FA029896
:203FE00000F05EFC07F0A7FF204603B0F0BDF0B505460F4600F03EFA28B90A21052000F086
:20400000CFF901245CE0284600F049FA050001D11121F3E7002401F05BFB022801D00C2160
:20402000ECE7284600F019FB08B11621E6E72846214600F024FB0646284600F0FBFA07F004
:2040400078FF3946284600F05DFC0121012E03D028464068C0680146284600F0C1FD314677
:20406000284600F08CFC012E03D12846214600F060FD07F060FF2846052101F06CFB08B13A
:20408000012416E007F055FF284601F086FB012801D001240AE0284600F085FD132128464F
:2040A00001F012FB2846022101F016FB07F043FF34B1012E02D1284600F049FD00F05AF968
:2040C0002046F0BDF0B505460E4600F0D3F928B90A21062000F064F9012452E0284600F099
:2040E000DEF9050001D11121F3E7002401F0F0FA022801D00C21ECE7284600F0B7FA08B144
:204100001621E6E72846214600F049FB0746284600F090FA07F00DFF3146284600F002FC87
:204120003946284600F065FC012F03D12846214600F018FD07F0FFFE2846062101F00BFBE3
:2041400008B1012416E007F0F4FE284601F025FB012801D001240AE0284600F024FD142166
:20416000284601F0B1FA2846022101F0B5FA07F0E2FE34B1012F02D1284600F0F6FC00F005
:20418000F9F82046F0BDF0B5044600F073F928B90A21072000F004F901254EE0204600F006
:2041A0007EF9040001D11121F3E7002501F090FA022801D00C21ECE7204600F04EFA18B99C
:2041C000204600F053FA08B11621E2E72046012100F055FA06462046012100F0E0FA0746D1
:2041E000204600F027FA07F0A4FE204600F0B1FB0221012E03D020464068C06801462046A5
:2042000000F0EEFC3A463146204600F033FC012E03D12046314600F08CFC012F03D1204686
:20422000394600F09FFC2021204601F04DFA2046022101F051FA07F07EFE2846F0BD70B51D
:20424000054600F017F908B90A2105E0284600F026F9050005D11121042000F0A1F80124E6
:2042600049E0002401F034FA064607F062FE284600F0AEFC28B9284600F080FC284600F00E
:2042800028F9F00620D5284600F0A2FC90B9132E07D1284600F055F9FFE7284600F087FC41
:2042A00004E0142E06D1284600F096FC2846012100F088FC284600F07EFC08B9012418E057
:2042C0002846214600F07EFC132E02D0284600F038F9284600F029FC2846022101F0F4F90B
:2042E000284601F0FDF9022803D12846032101F0F3F907F020FE204670BD70B583B000F00C
:20430000C2F800F0C5F8044601F0EEF9012818D323D002282CD1204600F090FC0546204653
:2043200000F091FC0646204600F094FC0E21029115F0A7F9324629460346204601F072F975
:2043400016E0204600F071FC0546204600F07BFC00F01EF800F091FD0AE0204600F065FC67
:204360000546204600F076FC00F012F800F022FF03B070BD7646284600F0ABF8284600F024
:20438000E0F8284600F056F9284600F0CEFBB7460E2100912946024620460023F746000037
:2043A00030B504460D460B460246FF200021C046C0462B462246FF203AF01AFC30BD0B4620
:2043C0000246FF20002110F04AB9F8E770B581B006460D4600241E480094694617F032F880
:2043E00060B12A460D23FF202146C046C0462A460D23FF2000F02EF8012401E00098306077
:20440000204601B070BDF0B582B00F4615461E4600241470009001940D4801AA694617F0EA
:204420007BF828B90198B8420ED3012028700BE032460D23FF202146C046C04632460D232E
:20444000FF2000F007F80124204602B0F0BD0000A84E08107546214630F060FBAF460000C4
:204460000146002019B1024A914200D101207047BC020810B34A1168080000D00120704747
:20448000B04908607047AF4A11684968085C7047AC4B19680968242202FB0010704730B5EE
:2044A0000146002002460AE01B68242402FB04331C7F8C4201D1184606E00132D2B2A14D40
:2044C0002B681C7AA242EFD330BD9E490868007A704730B50446056840F21731284601F023
:2044E00017FA28460021C0F8081F40F6FF71284601F013FA28460021C0F8481F40F2F371E7
:20450000284601F00DFA28460021C0F8881F40F6ED71284601F007FA28460021C0F8C81F25
:20452000A06828B1006801F001FAA06801F0A5F9E06828B1006801F0F9F9E06801F09DF974
:2045400030BD10B50446006801F0D0F9206801F0DBF910BD30B5054604682046002101609F
:20456000C04679492046C0F80012204600210166C046764920460167C04640F2071120460C
:20458000C0F8001320460021C0F8101301F046F9A86818B10068022101600068E86818B178
:2045A000006802210160006830BD10B568B100220021182402FB0404002344F82130013176
:2045C0000629F6D30132022AF2D310BD30B58468C5682CB16068FFF7E8FFA068FFF7E5FF90
:2045E0002DB16868FFF7E1FFA868FFF7DEFF30BD30B5044645680B21284640F0ADFD15F111
:204600003000002181706169E962617F0170A17F4170A568E4682DB16868FFF7C6FFA8684F
:20462000FFF7C3FF2CB16068FFF7BFFFA068FFF7BCFF30BDF0B5406812C812C012C80025CB
:204640002E462F46F2C0F0BDF0B5059C40682AF077FDE6C021461AC0F0BD014649680020EA
:204660004A680AB1096801B9012070470146496800204A690AB1096901B9012070470246F8
:2046800083680020ABB149B992F82010012910D1596871B151684968012908E092F82210D1
:2046A000012906D1996821B151684968022900D901207047F0B588B0079006914068049099
:2046C00043689D1A0292B5F5807F03D92A0601D0022100E00121019100245BE00798B5F5FF
:2046E000807F0068059004D9FF212B0A5E1EF6B202E0681EC1B20026182363430698039352
:204700001F18049B0091029A1B68394698184860C046059810F5107039468860C046009A0D
:204720003946130653F00100C860C0463946330653F480700861C046019A3946531E0BE09B
:2047400000BFC046745F00080701010013102A000F40000307010000A34204D1BE480860E1
:20476000C046002007E0BD480860C046069A182304FB03201830039A069B99184861C046D6
:20478000009A12EB0623029A01339A180292ED1A0134E4B201988442A0D308B0F0BD0246F2
:2047A000C3680020ABB151B992F82110012910D1596871B15168496980290AD908E092F836
:2047C0002210012905D1996819B15168496901B101207047F0B587B00690059115464068DC
:2047E000049000210291B2F5807F03D9120601D0022100E00121019100244CE00698B5F5B7
:20480000807F006804D9FF262A0A013AD1B202E06E1EF6B20021009110F5507018226243D1
:2048200005990392571839464860C046049A02981269394610188860C0463946320652F464
:204840008050C860C04600983946020652F480100861C04601983946421EA24204D18048FD
:204860000860C046002007E07E480860C046059B182204FB02301830039B059A99184861A5
:20488000C046009A029B16EB022201329B180293AD1A0134E4B201988442AFD307B0F0BD64
:2048A000F0B5021D62CA04460F460021FFF7E7FE012804D1696820460122FFF7FBFE2046C0
:2048C0000121FFF7DCFE012804D1A96820460222FFF7F0FE20460021FFF761FF012805D18D
:2048E0007A69803A71682046FFF774FF20460121FFF755FF012804D17A69B1682046FFF74B
:2049000069FFF0BD70B504460E4600F05AFFE86A407950F0004100F08CFF06F0FE01C0F8C2
:20492000401270BD70B504460E4600F04AFF60684069802802D394F8210008B94A4800E02E
:204940004A48E96A4979014300F073FF56F00101E5E730B5044600F034FF45492068016627
:20496000C046303569782878C0EA01412068C0F810134FF0004120680160C04630BDF0B5FB
:2049800082B0019105460EC81746B0F108060C4640F2F3710093204600F0C2FF01990129D0
:2049A00008D12046C0F804120098012100688161C04613E0686840687F2801D8702504E07C
:2049C000317D2046C0F804127125307F00FB05F12046C0F8881F35F04000786240F2131561
:2049E000307F10FB05F12046C0F8081F3D6202B0F0BDF0B582B004464768026801927B6913
:204A0000C068802B02D394F821200AB96C250EE0802B01D168250AE06925012903D10068F7
:204A200000258161C046617E0198C0F8041314F1200640F213117078009141430198C0F853
:204A4000081F009A3A62707800FB05F12068C0F8C81FBD6202B0F0BD0C0000890C00008852
:204A60000C0000850C000084000200800003008000F80040F0B583B0029201910446E0C8E8
:204A8000026840F2F3710092284600F049FF0199012907D12846C0F8041238680121816162
:204AA000C04617E060684068012801D1602708E0802801D8702704E0A17E2846C0F80412C8
:204AC000712794F8221028467943C0F8881F37F0400070620298012809D128460021C0F8DA
:204AE00004130098012100688161C04611E0E17E70694B1C834200D9411E2846C0F80413CB
:204B000094F82200692141432846C0F8C81F6920B0622034A07840F2131410FB04F12846FE
:204B2000C0F8481F346203B0F0BD0068002100F0B2BE10B5846800290CBF6168A168206878
:204B400000F0B0FE474920680160006810BD10B5044680680021006800F0A4FEA0680221CC
:204B60000068F1E710B5C468E5E710B50446C0680021006800F096FEE068F0E710B50446C6
:204B8000806830B10068002100F08CFEA06800F02DFEE06830B10068002100F083FEE068BB
:204BA00000F024FE10BD0068022100F076BE0068102100F072BE00B50068D0F8000FC0F307
:204BC000001000BD4268002082F832101062704740683230007870470068082100F05DBE84
:204BE000F0B581B00C4622C80F46384600F060FED0F18006F6B2B44200D8E6B2A86800908D
:204C0000002406E000993846095DC0F840120134E4B2B442F6D3E868801BE860002108B16C
:204C200000983118A96001B0F0BD00B50068D0F80C0F30F0120100D0084600BD00B5006801
:204C4000D0F84C0FF5E700B50068D0F88C0F30F01101F0E700B50068D0F8CC0F30F00D01DE
:204C6000E9E7000002000080F0B505AC05462478164605941F460468CA0610D51021204693
:204C800000F046FEC849204600F04AFE0022A868326010B100F0AFFD3970042039E08A0799
:204CA00009D50221204600F033FE05982021FFF786FB12202DE00020CA0713D52046012177
:204CC00000F026FEB849204600F02AFE0022A868326010B100F08FFD397005982121FFF7C2
:204CE0006EFB15E0C90514D54FF48071204600F00FFEAD49204600F013FE0022A8683260E7
:204D000010B100F078FD397005982221FFF75DFB1420F0BDF0B582B001920546071D50C8C4
:204D200000230093C80717D507F003F900F0AAFD32D0F1682846FFF753FFF06838B9387F67
:204D4000302141432868C0F8881F302070621121204600F0E5FD1FE0C80620D507F0E9F869
:204D6000386833300078022816D02046D0F8880F0546F06808B935F04005387F35F0100524
:204D800000FB05F12046C0F8881F75621021204600F0C6FD0223009307F0CDF812E0880648
:204DA0000AD52021204600F0BBFD01982321FFF70CFB1223009305E0480603D54021204651
:204DC00000F0AEFD009802B0F0BDF0B507460D4686680024306800F0A9FD00F034FD1CD8A7
:204DE00001A1D1E800F0C04605090B0D0F11131500F034FD022410E029210AE02A2108E056
:204E00002B2106E02C2104E02D2102E02E2100E02F212846FFF7D9FA12242046F0BD30B51B
:204E200004460D4607F085F8626892F83300022820D0E80605D5082082F83400206800F0AA
:204E400055FDA90703D5206810218166C046690710D500F00BFD07D10421417007F06BF87D
:204E6000207F0FF0A8FC07E007F065F8207F0FF0C4FC01E007F05FF830BD70B583B002924F
:204E80009DF81C608DF807300446002531B100960DF1070302AAFFF7E7FE0546029929B10F
:204EA00032462046FFF736FF0543EDB29DF80700012805D131462046FFF787FF0543EDB227
:204EC000290002D02046FFF7AAFF00F08AFC11D1A56807F02EF8206800210160C0463DB152
:204EE000A0680021006800F0DDFCA06800F07EFC00F087FC03B070BDF0B581B0074612C896
:204F00000E46304600F0DFFC0546E069A8420ED994F8330014280BD13046006EC046C00511
:204F200006D5E069802803D38038A84200D2C5B2A26900922946304600F0C9FCE069401B09
:204F4000E06101D1A0610EE0009AA918A16194F83310242907D1F97E0131814203D9411E57
:204F60003046C0F8041301B0F0BDF0B581B000920446A0C80026C80718D506F0DAFF00F0D3
:204F800030FC32D02046FFF7B7FFF869802806D120346078682141432846C0F8C81F28463D
:204FA000012120E002E000BFF30700004A0710D506F0BFFF00F015FC17D02046FFF79CFF6B
:204FC0002846042100F0AFFCF869082668B901260BE008070CD500F0EEFB06D02046FFF7E6
:204FE0008BFF0821284600F09EFC06F0A4FF16E0880609D52021284600F095FC00982521FD
:20500000FFF7DDF910260AE0480608D54021284600F089FC00982621FFF7D7F913263046E1
:2050200001B0F0BDF0B5054616460468CA060ED51021204600F06CFCC249204600F073FCE8
:20504000E86810B100F0D7FB3170042036E01F468A0709D50221204600F05AFC2021384640
:20506000FFF7ADF9122029E00020CA0711D52046012100F04DFCB349204600F054FCE868CF
:2050800010B100F0B8FB317021213846FFF797F913E0C90512D54FF48071204600F038FC5F
:2050A000A849204600F03FFCE86810B100F0A3FB317022213846FFF788F91420F0BDF0B570
:2050C0003EF058FEC768016800913868002400F02DFC38684068C0B20138072834D802A175
:2050E000D1E800F000BFC0460621232527292B2D06F01FFF00F0C6FB12D038680221016060
:20510000006868688021C16142698169803A5118203581616878682141430098C0F8C81F81
:2051200006F009FF10E029210AE02A2108E02B2106E02C2104E02D2102E02E2100E02F2108
:205140003046FFF742F91324204601B0F0BD30B504460D4606F0EDFE00F043FB27D00821FC
:20516000E80702D40421280702D520688166C046A90703D5206810218166C046E80603D5D6
:205180006068092180F83410690710D500F06EFB07D10521417006F0CEFE207F0FF021FB88
:2051A00007E006F0C8FE207F0FF028FB01E006F0C2FE30BDF0B582B00C466946CB709DF85F
:2051C0001C7005460026110003D03A46FFF7CDFE0646210007D03B466A4603322846FFF79F
:2051E00021FF0643F6B238F0EDFA05D139462846FFF765FF0643F6B2310002D02846FFF71A
:20520000A6FF00F03FFB13D1EC6806F092FE286800210160C0463CB1E8680021006800F033
:2052200041FBE86800F0E2FA00F0F8FA06F083FE02B0F0BDF0B582B0044601920F4660C82D
:205240000023009306F075FE606800F020FB01D12321017006F06FFEF80713D500F0ABFAF6
:205260002AD0F1682046FFF7BBFCF06840B92034A078302141432846C0F8881F3020706247
:20528000112116E0F8061AD500F095FA14D02846D0F8880F0746F06808B937F0400737F0CE
:2052A00010072034A17828467943C0F8881F77621021284600F034FB06F03DFE12E0B80669
:2052C0000AD52021284600F02BFB01982321FFF77CF81423009305E0780603D5402128460F
:2052E00000F01EFB6EE5F0B581B0044600920D460668002706F01DFE606800F0C8FA01D15B
:205300002421017006F017FEE80709D506F011FE00F067FA12D02046FFF7EEFD01210AE074
:20532000280711D506F005FE00F05BFA06D02046FFF7E2FD0821304600F0F5FA06F0FBFD9D
:2053400019E000BFED0F0000A80609D52021304600F0E9FA00982521FFF731F810270AE065
:20536000680608D54021304600F0DDFA00982621FFF72BF81127384601B0F0BDF0B5074646
:205380000D468668002406F0D4FD786800F07FFA01D12321017006F0CEFD306800F0C6FA08
:2053A00000F051FA1AD801A1D1E800F00407090B0D0F111300F052FA10E029210AE02A216B
:2053C00008E02B2106E02C2104E02D2102E02E2100E02F212846FEF7F8FF14242046F0BD2E
:2053E000F0B507460D46C668002406F0A2FD786800F04DFA01D12421017006F09CFD3068BB
:2054000000F094FA00F01FFA21D802A1D1E800F000BFC046060E10121416181A30680221AE
:2054200000F03DFA78688461C46110E029210AE02A2108E02B2106E02C2104E02D2102E071
:205440002E2100E02F212846FEF7BFFF11242046F0BD30B504460D460068406EC0B210F05A
:20546000050000D185B92068D0F8400F05462068D0F8C00F232204236D0702D424221840BB
:2054800002D0606880F8332030BDF0B582B0054601920F4681681C46009106680221B80784
:2054A0002ED5304600F039FA009A52B1A8680021006800F0F7F9A86800F098F9009800F021
:2054C000DCF9304600F0F4F96968C9680818002805D901982721FEF772FF54F01004304667
:2054E0000021C0F8881F06F024FD686800F0CFF901D12321017006F01EFD304600F0F6F9A0
:20550000F80621D51021304600F007FA54F00404E00631D468683430007802282CD106F0FF
:2055200008FD686833300078202803D128460021FFF78FFF686890F83310242901D1C069A9
:20554000002806F0F8FC17E0F80708D53046012100F0E3F901982121FEF731FF0AE0F8051B
:205560000AD54FF48071304600F0D7F901982221FEF72BFF54F01404FEF766BF30B5044642
:205580000D4606F0D6FC00F02CF948D0E80703D520680221C166C046E80608D562680B2163
:2055A00092F83300232800D10A2182F83410690735D5626812F13400017802250A2906D104
:2055C00006F0B9FC00F045F90FF019F91DE00B2906D106F0B0FC00F03CF90FF014F914E012
:2055E00092F83310232908D10621017006F0A3FC00F02FF90FF0F9F807E00721017006F00E
:205600009AFC00F026F90FF0F4F8206800F06EF9206800F079F9207FFEF7B5FD01E006F014
:205620008AFC30BDF0B581B004469DF820600F46150004D011463246FFF7FCFD04E01900C9
:2056400003D03246FFF74FFE054606A80078012804D131462046FFF791FE07E007A80078DD
:20566000012805D131462046FFF7BAFE0543EDB2390005D02B4632462046FFF706FF054616
:20568000290002D02046FFF779FF00F0AAF819D106F04FFC206800210160C046A06830B185
:2056A0000068002100F0FEF8A06800F09FF8E06830B10068002100F0F5F8E06800F096F897
:2056C00000F09FF801B0F0BD406880F8331070474068333000787047406880F83410704776
:2056E000406834300078704710B50446006800F0F9F8C10708D560683330007813281BD0A9
:20570000142826D1012025E082070AD5606833300078202803D023281BD3242819D8022072
:2057200018E042070AD5606833300078132803D02028F4D023280BE000200BE0000708D567
:205740006068333000781428DCD02028E7D02428E5D0032010BD70B582B00D464668F06A1C
:2057600000248079B0B101A8FEF730FE08B1012410E06946C87008E02B46F16A6A4601982D
:2057800089790332FEF73FFE04466846C07808B9002CF1D0204602B070BD10B54168C96ADC
:2057A0000124897929B10068406EC0B2C00700D00024204610BD774606F0BBFB00F011F810
:2057C000BF464568E96A006809680167C046E86A40F20711C07951EA40212068C0F80013B9
:2057E000F7466068333000780228F7460221006801600068F7467446006800F097F800210F
:20580000A74675462046FEF764FE206800F06EF8206800F079F806F08EFBAF4674462846C0
:20582000FEF757FE286800F061F8286800F06CF8A74620680166C0464FF000412068016016
:20584000C0462068F74630684068C0B201380728F746606880F83350207FF74630680221CC
:205860000160006878688460C460F7466068022200F8332F41780229F74600210068816168
:20588000C046F7466868333000780228F74610F8331F2029F74601607047816670470160BC
:2058A000006870470022826031F00301C160704781B0D0F808120091C8B2090401D5013096
:2058C000C0B201B07047D0F80803C0B2704710B5002304E0D0F84043D4540133DBB28B4225
:2058E000F8D310BDD0F8000EC0B2704781B04FF40173C15851F480310091C150C15831F43A
:205900008031C15001B0704781B04FF44173F0E74FF470628150805870474FF47462F9E7F0
:205920004FF47862F6E74FF47C62F3E7012101610069704710B5044645F67871C0F60001E4
:205940000878022805D117210020BDE8104000F099B9204600F0A7F920B90D21BDE8104046
:2059600000F090B9204600F040FA45F67C70C0F60000046045F67871C0F6000102200870A8
:2059800010BD06F0DCBA70B5064645F67C71C0F600010D6845F67871C0F600010878022864
:2059A00003D1284600F07FF928B914210620BDE8704000F067B9A88A864209D26C682C20A7
:2059C00006FB0044607F012808D0032808BF70BD0B210620BDE8704000F054B916F024FCB9
:2059E000286800210278204600F0D4F928680078022807D094F82500012803D1204600211B
:205A00008068C170BDE8704006F099BA70B5064645F67C71C0F600010D6845F67871C0F630
:205A200000010878022803D1284600F03CF928B914210720BDE8704000F024B9A88A8642FB
:205A400009D26C682C2006FB0044607F012808D0032808BF70BD0B210720BDE8704000F06F
:205A600011B916F0E1FB286801210278204600F091F928680078022807D094F8250001288B
:205A800003D1204601218068C170BDE8704006F056BA30B5054645F67C71C0F600010C68B3
:205AA00045F67871C0F600010878022803D1204600F0F9F828B914211620BDE8304000F0F5
:205AC000E1B8A08A854210D220680078022805D145211620BDE8304000F0D4B864682C2015
:205AE00005FB0044607F012805D00B211620BDE8304000F0C7B8204600F0C9F928B9442141
:205B00001620BDE8304000F0BDB82046002100F0E0F830BD30B5054645F67C71C0F600018A
:205B20000C6845F67871C0F600010878022803D1204600F0B8F828B914211720BDE8304030
:205B400000F0A0B8A08A854210D220680078022805D145211720BDE8304000F093B8646871
:205B60002C2005FB0044607F012805D00B211720BDE8304000F086B8204600F088F928B95A
:205B800044211720BDE8304000F07CB82046022100F0C2F830BD417F012918BF7047C06870
:205BA0000021016070472DE9F04D81B082460C46934645F67C70C0F600000568284600F08D
:205BC00072F830B145F67871C0F60001087802280BD059465046072200F07BF91421F8200B
:205BE00001B0BDE8F04D00F04DB8286961000F5AA88A87423BD22C2007FB00F8686808EBB1
:205C00000006304600F05CF8C4B204F007025946504600F05EF9A00718D545F67C73C0F661
:205C20000003186890E80C0008EB03011278022A0CD18A68D378012B08D1137191F827104D
:205C400021B9C06850F827001DF07CFFE00758BF5FEA847013D528680278707F01280ED127
:205C60002146304601B0BDE8F04D00F07AB859465046072201B0BDE8F04D00F02AB901B01D
:205C8000BDE8F08D30B504460D4602460B4600217A20C046C0462B46224600217A20BDE8C7
:205CA00030402EF03BBF01004FF0000008BF704740F25432C1F20802914208BF01207047B7
:205CC00010B504460069804741692046BDE810400847F0B504460F4600698047E568064624
:205CE00006F02BF93269204602219047E878012803D1B26820460221904717B9716A2046A7
:205D00008847A0680121417000202870A5F80100BDE8F040FFF735BEF0B504460F46006918
:205D20008047E668054606F008F9022F0AD16A6C204600219047EA6B204690476A6C2046FE
:205D400001219047EA68204602219047A0680221417000203070A6F80100BDE8F040FFF792
:205D600010BE10B54468C368890758BF10BD80684078012804BF99785854022A13BF0128D5
:205D8000D878012810BD2068002808BF10BDBDE8104000472DE9F04404460F469246006913
:205DA00080470646E568BAF1010F1BD1A0684078012817D1012F0DD1E87898B9204600F0F6
:205DC00059F83369204602219847B36820460221984707E037B9E878012803D1F3682046F6
:205DE00002219847EF70BDE8F0842DE9F0488346006801210170BBF8141000278F4228BF61
:205E0000BDE8F088DBF80420380C2C2100FB01240023A168267F4B70A1F803300E7094F85B
:205E20002120A1F805308A702046FFF7B4FE21698847C26805462046032190472046012194
:205E4000C046C0462968204688472A6C3146204690476A680146204690476A6C2046012172
:205E6000904707F58037BBF81410B1EB174FC9D8BDE8F08830B5044600698047016EE568E6
:205E800020468847012804BFA978685430BD30B505460069012480470146687F022816D054
:205EA000A86842782846012A09D1896D8847002808BF30BDA86800214171204630BDC96D98
:205EC0008847002808BF30BDA86800218171204630BD4FF6FF73994208BF114600F051812F
:205EE00000F005B840F2A430C1F208007047026C11F00701C2F382428A424FF0010202FA83
:205F000001F1426908BF41F480714161406970478069016470478169C28B90F826000128E2
:205F200003D1886920F4807006E012F00702012000FA02F288699043886188697047816959
:205F4000C28B90F82600012803D1886940F4807006E012F00702012000FA02F288691043F0
:205F60008861886970478169C28B90F8260012F00702012807BF904040F4807001209040CC
:205F80004A694861486970478269C18B90F82600D269012806D14FF480710020114208BFAF
:205FA000704708E011F00701012000FA01F10020114208BF7047022070478069006C704756
:205FC0008169C28B90F8260012F00702012818BF7047086C20F4E01040EA82400864704793
:205FE000C18B01F00703826990F82600116C01280BD121F4F8115800032303FA00F08143F2
:206000001164906920F480700BE0012000FA03FC5800032303FA00F081431164906920EA62
:206020000C009061906970478269C18B90F826005269012805D1C2F30060012818BF0020DF
:20604000704711F0070101F1100001218140114021FA00F0012818BF0020704770477047FA
:206060000146826991F826100120012918BF7047116C11F4E01F18BF002070470146C28B93
:206080008369012091F8261012F00702012918BF7047196C01F4E011B1EB824F18BF0020A2
:2060A000704770477047704710B40246C08B00F0070490690329006C14D849F28453C1F270
:2060C00008035B5C92F82610012904D120F4403040EA034006E061008B40032202FA01F129
:2060E0008843184310BC704770478269C18B90F82600126C012806D1C2F30140411E02295D
:206100000BD8C0B270474907080F03218140114021FA00F0411E0229F3D9002070478269B3
:20612000C18B90F82600012805D1916911F4807018BF0120704711F00701012088409169DC
:20614000084018BF01207047002070470020704701207047012070478269C18B90F8260005
:20616000012805D1516911F4807018BF0120704711F00701012088405169084018BF0120D6
:2061800070470167006F7047411E02298FBF032049F28751C1F20801405C70478069C06C88
:2061A000704780694068C0F30010704710B490F828208169012A40F2F0021FD1C4F2002288
:2061C0000A604FF0FF320A6200228A6090F82120437F0A63032B1FD077224A6590F8224026
:2061E00044F48072022B29D143681B78042B25D1230290F824008B64E8B125E0C0F20022B9
:206200000A604FF0FF320A6200228A6090F82120437F0A63032BDFD14268127E012ADBD145
:20622000732290F822304A6543F48072002390F824008B6440B940F6FF7309E0002390F824
:2062400024008B640028F6D040F63F7342EA0062CB644A6410BC7047806900218167F02263
:2062600002604FF0FF3202620163322242654FF480724264816440F6FF72C2648160704764
:206280008069C164704780690167006F70478069C16F01F0010011F0020F18BF40F002009C
:2062A00011F0040F18BF40F0040070478269906F0843906770478069826F8A438267806FA6
:2062C00070478169086C40F01000086470478069016C41F004010164006C704782691168CE
:2062E000C90F136881F001015B0048BF002190F82330106A202B03D1B0F1FF3F05D003E04A
:206300004FF6FF73984200D000219068002818BF0021506D00F07700322818BF0021D06C31
:20632000C0F30B0040F6FF73984218BF0021506CB0F5807F18BF0021906C000418BF0021D5
:206340000846704730B48269012190F828C01368BCF1010F02D15B0003D401E05B0000D589
:20636000002190F823C0136ABCF1200F03D1B3F1FF3F05D003E04FF6FF7C634500D0002171
:20638000447F032C09D143681B7E012B05D1536D03F07703732B06D004E0536D03F0770339
:2063A000772B00D00021536C90F8225013F0FF039D4218BF0021022C0AD140680078042860
:2063C00006D1906C00F47F40B0EB052F05D003E0906C10F47F4F00D00021084630BC704700
:2063E0008269506C20F47F0040EA0140506470478169C86C20F03000C86470478069416CB6
:2064000021F47F014164C16C41F03001C164704710B584690846FFF7B7FEE16C21F00301CA
:20642000084310BD80690129026804D142F0004101600068704722F00042026070478069A9
:20644000C06C10F0030002288FBF002049F28B51C1F20801085C70478069806FC0F34000BC
:2064600070478069806F10F0010070478069006BC0B2704780694168090404D4006C10F075
:20648000140008BF70470120704780694068C0F3C03080F0010070478069006FC0F34000EB
:2064A0007047000010B5994C207828B100F044F9012238F09DFB05E0622001212EF057FB01
:2064C0000120207010BD10B5904C2078032805D000F032F91A4638F08BFB0EE00420FCF7D7
:2064E000F1FB34F037FE34F082FE34F051FC34F06CFC00F025F90220207010BD10B5834C95
:206500002078012805D000F017F9032238F070FB0EE034F026FD7E4A012010707D4A7E4901
:206520001088D0F1010080B234F079FD0320207010BD10B5754C2078022805D000F0FCF8B4
:20654000042238F055FB10E034F00BFD734B1888734B1988734B08186F4A1988091889B230
:20656000002034F0A9FD0420207010BD10B567490878042805D000F0DFF8052238F038FB71
:206580001AE034F0EEFC654B1888654B624C1988644B081822461988091889B2002034F02C
:2065A0008BFD5C4B21461888D0F1010080B234F018FD574B0020187010BD00B534F024FC68
:2065C000622000212EF0D3FA504A05201070564A01201070C046C04600BD30B552490878E4
:2065E000012823D1514C2078C046C0462078C046C046207808B9012016E0444D28780528CB
:2066000004D0082001212CF0BDF80CE00620287034F0EDFD0720287005F042FD18B1C8212E
:206620000420FCF7E3FA0020207006E040F265100023062219462EF071FA30BD00B53349D8
:206640000878072804D008280ED134F0B7FB0BE034F087FC05F03EFD30B1354A0120C821A6
:2066600010700420FCF7C2FA00BD10B5274C2078072819D306D00A2816D834F035FC0520AF
:20668000207011E0274B19882A4B234A188834F013FD08202070622001212EF068FA4FF491
:2066A000C8610420FCF7A2FA10BD00B517490878072817D3082804D90A2813D105F00AFD64
:2066C0000BE01B490878012805D105F003FD28B91749087006E005F0E3FC18B1C8210420AE
:2066E000FCF784FA00BD00B5622000212EF03FFA05F0F0FC30B1054A0A20C82110700420F5
:20670000FCF774FA00BD084908787047ED9B01082C5F0008FAFF071058880810FCFF071095
:20672000F4FF0710F2FF0710FC5E0008FD5E0008FE5E0008F0FF071040F265100223F7460F
:206740000F49104808607047B0F500524FF4887092B2062A02D303231A4604E0B1F5004F90
:2067600004D96623032200212EF0D8B9044B186800685200105A04F0ADBA00000000000070
:2067800088A501084402091010B5044600F0E7F902000CD1112301466520C046C046112366
:2067A000002211466520BDE810402EF0B7B945F68870C0F60000046040F26C40C1F2080072
:2067C00000F096FE45F68871C0F600010868417D11F0800F05D0817C45F60172C0F6000254
:2067E000117000F07FFC45F60071C0F600010220087010BD10B5044645F60071C0F6000171
:206800000878022807D145F68871C0F60001086800F0A5F968B90F23022200216520C046EA
:20682000C0460F230222002165202EF077F9012010BD45F68872C0F600021068C17CA14255
:2068400001D9006868B90B23022200216520C046C0460B230222002165202EF05FF9012042
:2068600010BD40F26C40C1F2080000F041FE45F60170C0F6000045F68871C0F600010470C2
:2068800008680068B02114FB0101022000F072FB003818BF012010BD10B545F60071C0F69B
:2068A000000108780024022807D145F68871C0F60001086800F053F968B921460F230322BB
:2068C0006520C046C04621460F23032265202EF025F9012010BD00F072FC08B9012010BDAD
:2068E00040F26C40C1F2080000F002FE45F68871C0F6000145F60172C0F6000208681178C5
:206900000068B02211FB020000F047FC68B121460E2303226520C046C04621460E230322D8
